{
  "_format": "hh-sol-artifact-1",
  "contractName": "MoneyGram",
  "sourceName": "contracts/MoneyGram.sol",
  "abi": [
    {
      "anonymous": false,
      "inputs": [
        {
          "indexed": false,
          "internalType": "address",
          "name": "from",
          "type": "address"
        },
        {
          "indexed": false,
          "internalType": "address",
          "name": "receiver",
          "type": "address"
        },
        {
          "indexed": false,
          "internalType": "uint256",
          "name": "amount",
          "type": "uint256"
        },
        {
          "indexed": false,
          "internalType": "uint256",
          "name": "timestamp",
          "type": "uint256"
        }
      ],
      "name": "Transfer",
      "type": "event"
    },
    {
      "inputs": [
        {
          "internalType": "address payable",
          "name": "receiver",
          "type": "address"
        },
        {
          "internalType": "uint256",
          "name": "amount",
          "type": "uint256"
        }
      ],
      "name": "addToBlockchain",
      "outputs": [],
      "stateMutability": "nonpayable",
      "type": "function"
    },
    {
      "inputs": [],
      "name": "getAllTransactions",
      "outputs": [
        {
          "components": [
            {
              "internalType": "address",
              "name": "sender",
              "type": "address"
            },
            {
              "internalType": "address",
              "name": "receiver",
              "type": "address"
            },
            {
              "internalType": "uint256",
              "name": "amount",
              "type": "uint256"
            },
            {
              "internalType": "uint256",
              "name": "timestamp",
              "type": "uint256"
            }
          ],
          "internalType": "struct MoneyGram.TransferStruct[]",
          "name": "",
          "type": "tuple[]"
        }
      ],
      "stateMutability": "view",
      "type": "function"
    },
    {
      "inputs": [],
      "name": "getTransactionCount",
      "outputs": [
        {
          "internalType": "uint256",
          "name": "",
          "type": "uint256"
        }
      ],
      "stateMutability": "view",
      "type": "function"
    }
  ],
  "bytecode": "0x608060405234801561001057600080fd5b506106e9806100206000396000f3fe608060405234801561001057600080fd5b50600436106100415760003560e01c806327506f53146100465780632e7700f014610064578063b64782e514610082575b600080fd5b61004e61009e565b60405161005b9190610501565b60405180910390f35b61006c6101bd565b6040516100799190610523565b60405180910390f35b61009c60048036038101906100979190610366565b6101c6565b005b60606001805480602002602001604051908101604052809291908181526020016000905b828210156101b457838290600052602060002090600402016040518060800160405290816000820160009054906101000a900473ffffffffffffffffffffffffffffffffffffffff1673ffffffffffffffffffffffffffffffffffffffff1673ffffffffffffffffffffffffffffffffffffffff1681526020016001820160009054906101000a900473ffffffffffffffffffffffffffffffffffffffff1673ffffffffffffffffffffffffffffffffffffffff1673ffffffffffffffffffffffffffffffffffffffff16815260200160028201548152602001600382015481525050815260200190600101906100c2565b50505050905090565b60008054905090565b60016000808282546101d89190610577565b92505081905550600160405180608001604052803373ffffffffffffffffffffffffffffffffffffffff1681526020018473ffffffffffffffffffffffffffffffffffffffff16815260200183815260200142815250908060018154018082558091505060019003906000526020600020906004020160009091909190915060008201518160000160006101000a81548173ffffffffffffffffffffffffffffffffffffffff021916908373ffffffffffffffffffffffffffffffffffffffff16021790555060208201518160010160006101000a81548173ffffffffffffffffffffffffffffffffffffffff021916908373ffffffffffffffffffffffffffffffffffffffff160217905550604082015181600201556060820151816003015550507f9ed053bb818ff08b8353cd46f78db1f0799f31c9e4458fdb425c10eccd2efc443383834260405161033094939291906104bc565b60405180910390a15050565b60008135905061034b81610685565b92915050565b6000813590506103608161069c565b92915050565b6000806040838503121561037d5761037c610680565b5b600061038b8582860161033c565b925050602061039c85828601610351565b9150509250929050565b60006103b28383610449565b60808301905092915050565b6103c78161061b565b82525050565b6103d6816105cd565b82525050565b6103e5816105cd565b82525050565b60006103f68261054e565b6104008185610566565b935061040b8361053e565b8060005b8381101561043c57815161042388826103a6565b975061042e83610559565b92505060018101905061040f565b5085935050505092915050565b60808201600082015161045f60008501826103cd565b50602082015161047260208501826103cd565b506040820151610485604085018261049e565b506060820151610498606085018261049e565b50505050565b6104a781610611565b82525050565b6104b681610611565b82525050565b60006080820190506104d160008301876103dc565b6104de60208301866103be565b6104eb60408301856104ad565b6104f860608301846104ad565b95945050505050565b6000602082019050818103600083015261051b81846103eb565b905092915050565b600060208201905061053860008301846104ad565b92915050565b6000819050602082019050919050565b600081519050919050565b6000602082019050919050565b600082825260208201905092915050565b600061058282610611565b915061058d83610611565b9250827fffffffffffffffffffffffffffffffffffffffffffffffffffffffffffffffff038211156105c2576105c1610651565b5b828201905092915050565b60006105d8826105f1565b9050919050565b60006105ea826105f1565b9050919050565b600073ffffffffffffffffffffffffffffffffffffffff82169050919050565b6000819050919050565b60006106268261062d565b9050919050565b60006106388261063f565b9050919050565b600061064a826105f1565b9050919050565b7f4e487b7100000000000000000000000000000000000000000000000000000000600052601160045260246000fd5b600080fd5b61068e816105df565b811461069957600080fd5b50565b6106a581610611565b81146106b057600080fd5b5056fea2646970667358221220f51b9095770ed397d4c7a96b6af90b54dcdb2d1119bb51b8a692f2a64eb4475264736f6c63430008070033",
  "linkReferences": {},
  "deployedLinkReferences": {}
}